:020000020000FC
:100000000C9404000C9417000FEF0DBF00E10EBF1D
:100010000FEF07BB00E001BB06E806B903E007B934
:1000200001E009BF02E000936A007894A5C301D4FF
:10003000DED2A0D204E6302E01E00F933F9200E31F
:10004000302E06E03A94F1F73A940A95D9F73F90AA
:100050000F913A9491F70A9581F70CD38BD21895AA
:100060003090008037FCFCCF03D0009300800895CF
:1000700000D0000008952D3069F12A30A9F10091D7
:10008000008007FDFCCFF4DF209300C0089501E05D
:10009000E7CF02E0E5CF00E1E3CF04E1E1CF08E103
:1000A000DFCF0CE1DDCF0DE0DBCF0CE0D9CF0EE0F0
:1000B000D7CF0CE0D5CF05B7006C05BF01E0D0DF8E
:1000C00006E0CEDF0CE0CCDF08E3CADF0895022FA4
:1000D0000068C6CF0091008007FDFCCF0074006867
:1000E000C7DF0093008008952F9320E4F0DF2F9165
:1000F0000895FF91EF91EE0FFF1FAF93BF93C89547
:100100003196002021F04AF0002D17D0F8CF31961B
:10011000F695E795BF91AF91099400FA002DC89527
:10012000A02DA03610F0B2E001C0BB2731960438F4
:1001300079F0053881F015C0E2CF2F93FF93EF934C
:10014000E42DF52D202F0995EF91FF912F91089522
:100150000C91F3DFD4CF0D91002309F4D0CFEDDF64
:10016000FACF5F934F933F932F939F938F937F93F8
:100170006F932D913D914D915D9106FD06C005FD5A
:100180000FC004FD10C003FD19C06AE0702F769502
:100190007770729580E0902F9295937093951AC026
:1001A00062E094E003C060E194E000C0702F7695B7
:1001B000777009F478E0729580E00CC06AE0C89529
:1001C000802D3196C895702D3196902F959593700E
:1001D000939500C0943081F0933051F0923021F02B
:1001E000332716F427FD3FEF442716F437FD4FEF72
:1001F000552716F447FD5FEF09D06F917F918F91DE
:100200009F912F913F914F915F9179CFCF92BF9264
:10021000AF929F928F92BB18AA249924882486F4C7
:10022000E89455236AF46894772309F07051509547
:100230004095309520950FEF201B300B400B500B55
:10024000882351F05595479537952795B794A794EE
:10025000979487948A95B1F77F9372957F700EE299
:100260000F9345D00C2D30D00F9300272017300767
:100270004007500729F07723A1F37A9591F707C03B
:10028000772329F07A9519F000E257DFF9CF16F4B9
:100290000DE253DF0F910E3211F04FDFFBCF7F9154
:1002A0007F70772359F049DF282D392D4A2D5B2D9A
:1002B00011D00C2D09D041DF7A95D1F78F909F9006
:1002C000AF90BF90CF9008950A3010F4005D08956C
:1002D000095A0895CC2400E2889420FDC60EC794E4
:1002E00057954795379527950A95B1F70895CC24EA
:1002F00000E2221F331F441F551FCC1CC61A08F4EE
:10030000C60E0A95B1F7221F331F441F551F509583
:1003100040953095209508950FEF0DBF00E10EBF79
:10032000CADE00C0771B66278EE00F99FECF0FE470
:10033000302E03E03A94F1F73A940A95D9F70F99E1
:1003400008940F9B8894661F771F0CE3302E0AE0F9
:100350003A94F1F73A940A95D9F78A9581F760951E
:100360006F7E08EE302E04E00F933F9200E3302EB4
:1003700006E03A94F1F73A940A95D9F73F900F9135
:100380003A9491F70A9581F708950FEF0DBF00E1B8
:100390000EBF0FEF07BB8FDE06E806B903E007B913
:1003A00000C0369A3699FECF24B135B170DE0BE32A
:1003B000402E00E0502E9DDE0D0D44495354414E19
:1003C00043453D20D01220202020000004E6302E9E
:1003D00001E00F933F9200E3302E06E03A94F1F7EC
:1003E0003A940A95D9F73F900F913A9491F70A956C
:1003F00081F708950A950000000000000000000049
:10040000C9F70895C598BD980895BD9A00EFF2DF29
:10041000BD9803E2EFDF06B305FB0DECEBDF0895BB
:10042000BD9A0CE1E7DFBD9802E0E4DF06B305FB0F
:1004300001E0E0DF0895BD9A01E0DCDFBD980EE148
:10044000D9DF06B305FB01E0D5DF0895BD9A01E0D1
:10045000D1DFBD9807E0CEDF06B305FB07E1CADFB9
:1004600008953F9338E0279510F4E5DF01C0D8DF09
:100470003A95C9F73F9108953F9338E02795E6DF15
:1004800027F93A95D9F73F91089509E148E0279572
:1004900008F4302730FB379537F94A95C1F70895AE
:1004A0000FEF0DBF00E10EBFADDF05DE00C0ADDF19
:1004B0002CECD7DF24E4D5DFEADDEBDDA6DF2CEC86
:1004C000D0DF2EEBCEDFD8DF822ED6DF322F282DE5
:1004D0000BE3402E00E0502E0CDE74656D706572EB
:1004E00061747572658B12044243200D0000082D63
:1004F000132F20EA31E00217130718F068D03AD022
:1005000008956DD037D0089502E001BB089508E04A
:1005100027FD06C03324919A32BA0000000004C0BF
:10052000919A000000009198220F0A9589F708E03F
:1005300037FD06C03324919A32BA0000000004C08F
:10054000919A000000009198330F0A9589F708E00E
:1005500047FD06C03324919A32BA0000000004C05F
:10056000919A000000009198440F0A9589F7089528
:1005700091980895E0E0F4E000E4002E219131919B
:100580004191F894C4DF78940A94C1F7F1DF08959B
:1005900025E0219322272193219308952227219357
:1005A00021932193089528E021932FE3219320E0C4
:1005B00021930895222721932FE3219320E0219373
:1005C00008952227219321932FE021930895E0E0BD
:1005D000F4E080E4EFDF8A958030E1F70895E0E011
:1005E000F4E080E4EEDF8A958030E1F70895E0E002
:1005F000F4E0D4DFD3DFD2DFD1DFD0DFCFDFCEDF57
:10060000CDDFCCDFCBDFCADFC9DFC8DFC7DFC6DFA6
:10061000C5DFC4DFC3DFC2DFC6DFC0DFBFDFBEDFD1
:10062000BDDFBCDFBBDFBFDFB9DFBDDFB7DFB6DFFC
:10063000B5DFB4DFB8DFB7DFB6DFB5DFB4DFAEDF1D
:10064000ADDFACDFABDFAADFA9DFA8DFA7DFA6DF66
:10065000A5DFA4DFA3DFA2DFA1DFA0DF9FDF9EDF96
:100660009DDF9CDF9BDF9ADF99DF98DF97DF96DFC6
:1006700095DF0895E0E0F4E091DF90DF8FDF93DF16
:1006800092DF8CDF8BDF8ADF89DF88DF87DF8BDF1C
:100690008ADF84DF83DF82DF81DF80DF84DF83DF47
:1006A00082DF81DF7BDF7ADF79DF78DF7CDF7BDF72
:1006B0007ADF79DF73DF72DF71DF75DF74DF73DF9D
:1006C00072DF71DF70DF6ADF69DF6DDF6CDF6BDFC8
:1006D0006ADF69DF68DF62DF66DF65DF64DF63DFF3
:1006E00062DF61DF60DF5FDF5EDF5DDF5CDF5BDF1E
:1006F0005ADF59DF58DF57DF0895E0E0F4E080E487
:1007000052DF8A958030E1F70895E0E0F4E080E47C
:100710003FDF8A958030E1F70895E0E0F4E080E47F
:100720003DDF8A958030E1F70895771B66278EE0DC
:100730000F99FECF0FE4302E03E03A94F1F73A948C
:100740000A95D9F70F9908940F9B8894661F771F15
:100750000CE3302E0AE03A94F1F73A940A95D9F76F
:100760008A9581F7609504E3302E06E03A94F1F71C
:100770003A940A95D9F708959EDC89DC43DEC4DEFD
:1007800008EC302E01E00F933F9200E3302E06E09C
:100790003A94F1F73A940A95D9F73F900F913A9429
:1007A00091F70A9581F70BE3402E00E0502EA1DC73
:1007B0004249454E56454E554500B7DF02E0302EC2
:1007C00001E00F933F9200E3302E06E03A94F1F7F8
:1007D0003A940A95D9F73F900F913A9491F70A9578
:1007E00081F7603269F0633359F0613349F06F3358
:1007F00049F06B3339F06F3229F06B3219F0DDCFED
:1008000056DEDBCFCEDD283C00E0300718F47DDF7C
:10081000B1DED3CFDCDEAEDE67DC0BE3402E00E0E2
:10082000502E67DC2020202053544F502021000000
:10083000C4CF2DDC0BE3402E00E0502E5ADC2020EC
:0A08400020202020534F530008959C
:00000001FF
